{
  "_format": "hh-sol-artifact-1",
  "contractName": "AccessGrants",
  "sourceName": "contracts/AccessGrants.sol",
  "abi": [
    {
      "inputs": [
        {
          "internalType": "address",
          "name": "initialOwner",
          "type": "address"
        }
      ],
      "stateMutability": "nonpayable",
      "type": "constructor"
    },
    {
      "anonymous": false,
      "inputs": [
        {
          "indexed": true,
          "internalType": "address",
          "name": "owner",
          "type": "address"
        },
        {
          "indexed": true,
          "internalType": "address",
          "name": "approved",
          "type": "address"
        },
        {
          "indexed": true,
          "internalType": "uint256",
          "name": "tokenId",
          "type": "uint256"
        }
      ],
      "name": "Approval",
      "type": "event"
    },
    {
      "anonymous": false,
      "inputs": [
        {
          "indexed": true,
          "internalType": "address",
          "name": "owner",
          "type": "address"
        },
        {
          "indexed": true,
          "internalType": "address",
          "name": "operator",
          "type": "address"
        },
        {
          "indexed": false,
          "internalType": "bool",
          "name": "approved",
          "type": "bool"
        }
      ],
      "name": "ApprovalForAll",
      "type": "event"
    },
    {
      "anonymous": false,
      "inputs": [
        {
          "indexed": false,
          "internalType": "uint256",
          "name": "_fromTokenId",
          "type": "uint256"
        },
        {
          "indexed": false,
          "internalType": "uint256",
          "name": "_toTokenId",
          "type": "uint256"
        }
      ],
      "name": "BatchMetadataUpdate",
      "type": "event"
    },
    {
      "anonymous": false,
      "inputs": [
        {
          "indexed": true,
          "internalType": "address",
          "name": "owner",
          "type": "address"
        }
      ],
      "name": "GrantAccepted",
      "type": "event"
    },
    {
      "anonymous": false,
      "inputs": [
        {
          "indexed": true,
          "internalType": "address",
          "name": "owner",
          "type": "address"
        },
        {
          "indexed": true,
          "internalType": "address",
          "name": "grantee",
          "type": "address"
        },
        {
          "indexed": true,
          "internalType": "string",
          "name": "dataId",
          "type": "string"
        },
        {
          "indexed": false,
          "internalType": "uint256",
          "name": "lockedUntil",
          "type": "uint256"
        }
      ],
      "name": "GrantAdded",
      "type": "event"
    },
    {
      "anonymous": false,
      "inputs": [
        {
          "indexed": true,
          "internalType": "address",
          "name": "owner",
          "type": "address"
        },
        {
          "indexed": true,
          "internalType": "address",
          "name": "grantee",
          "type": "address"
        },
        {
          "indexed": true,
          "internalType": "string",
          "name": "dataId",
          "type": "string"
        },
        {
          "indexed": false,
          "internalType": "uint256",
          "name": "lockedUntil",
          "type": "uint256"
        }
      ],
      "name": "GrantDeleted",
      "type": "event"
    },
    {
      "anonymous": false,
      "inputs": [
        {
          "indexed": false,
          "internalType": "uint256",
          "name": "_tokenId",
          "type": "uint256"
        }
      ],
      "name": "MetadataUpdate",
      "type": "event"
    },
    {
      "anonymous": false,
      "inputs": [
        {
          "indexed": true,
          "internalType": "address",
          "name": "previousOwner",
          "type": "address"
        },
        {
          "indexed": true,
          "internalType": "address",
          "name": "newOwner",
          "type": "address"
        }
      ],
      "name": "OwnershipTransferred",
      "type": "event"
    },
    {
      "anonymous": false,
      "inputs": [
        {
          "indexed": true,
          "internalType": "address",
          "name": "fromAddress",
          "type": "address"
        },
        {
          "indexed": true,
          "internalType": "address",
          "name": "toAddress",
          "type": "address"
        }
      ],
      "name": "TokenTransfered",
      "type": "event"
    },
    {
      "anonymous": false,
      "inputs": [
        {
          "indexed": true,
          "internalType": "address",
          "name": "from",
          "type": "address"
        },
        {
          "indexed": true,
          "internalType": "address",
          "name": "to",
          "type": "address"
        },
        {
          "indexed": true,
          "internalType": "uint256",
          "name": "tokenId",
          "type": "uint256"
        }
      ],
      "name": "Transfer",
      "type": "event"
    },
    {
      "inputs": [
        {
          "internalType": "address",
          "name": "validator",
          "type": "address"
        }
      ],
      "name": "addValidator",
      "outputs": [],
      "stateMutability": "nonpayable",
      "type": "function"
    },
    {
      "inputs": [
        {
          "internalType": "address",
          "name": "to",
          "type": "address"
        },
        {
          "internalType": "uint256",
          "name": "tokenId",
          "type": "uint256"
        }
      ],
      "name": "approve",
      "outputs": [],
      "stateMutability": "nonpayable",
      "type": "function"
    },
    {
      "inputs": [
        {
          "internalType": "address",
          "name": "owner",
          "type": "address"
        }
      ],
      "name": "balanceOf",
      "outputs": [
        {
          "internalType": "uint256",
          "name": "",
          "type": "uint256"
        }
      ],
      "stateMutability": "view",
      "type": "function"
    },
    {
      "inputs": [
        {
          "internalType": "address",
          "name": "grantee",
          "type": "address"
        },
        {
          "internalType": "string",
          "name": "dataId",
          "type": "string"
        },
        {
          "internalType": "uint256",
          "name": "lockedUntil",
          "type": "uint256"
        }
      ],
      "name": "deleteGrant",
      "outputs": [],
      "stateMutability": "nonpayable",
      "type": "function"
    },
    {
      "inputs": [
        {
          "internalType": "address",
          "name": "owner",
          "type": "address"
        },
        {
          "internalType": "address",
          "name": "grantee",
          "type": "address"
        },
        {
          "internalType": "string",
          "name": "dataId",
          "type": "string"
        },
        {
          "internalType": "uint256",
          "name": "lockedUntil",
          "type": "uint256"
        },
        {
          "internalType": "bytes",
          "name": "signature",
          "type": "bytes"
        }
      ],
      "name": "deleteGrantBySignature",
      "outputs": [],
      "stateMutability": "nonpayable",
      "type": "function"
    },
    {
      "inputs": [
        {
          "internalType": "address",
          "name": "owner",
          "type": "address"
        },
        {
          "internalType": "address",
          "name": "grantee",
          "type": "address"
        },
        {
          "internalType": "string",
          "name": "dataId",
          "type": "string"
        },
        {
          "internalType": "uint256",
          "name": "lockedUntil",
          "type": "uint256"
        }
      ],
      "name": "deleteGrantBySignatureMessage",
      "outputs": [
        {
          "internalType": "string",
          "name": "",
          "type": "string"
        }
      ],
      "stateMutability": "pure",
      "type": "function"
    },
    {
      "inputs": [
        {
          "internalType": "address",
          "name": "owner",
          "type": "address"
        },
        {
          "internalType": "address",
          "name": "grantee",
          "type": "address"
        },
        {
          "internalType": "string",
          "name": "dataId",
          "type": "string"
        }
      ],
      "name": "findGrants",
      "outputs": [
        {
          "components": [
            {
              "internalType": "address",
              "name": "owner",
              "type": "address"
            },
            {
              "internalType": "address",
              "name": "grantee",
              "type": "address"
            },
            {
              "internalType": "string",
              "name": "dataId",
              "type": "string"
            },
            {
              "internalType": "uint256",
              "name": "lockedUntil",
              "type": "uint256"
            }
          ],
          "internalType": "struct AccessGrants.Grant[]",
          "name": "",
          "type": "tuple[]"
        }
      ],
      "stateMutability": "view",
      "type": "function"
    },
    {
      "inputs": [
        {
          "internalType": "uint256",
          "name": "tokenId",
          "type": "uint256"
        }
      ],
      "name": "getApproved",
      "outputs": [
        {
          "internalType": "address",
          "name": "",
          "type": "address"
        }
      ],
      "stateMutability": "view",
      "type": "function"
    },
    {
      "inputs": [
        {
          "internalType": "address",
          "name": "grantee",
          "type": "address"
        },
        {
          "internalType": "string",
          "name": "dataId",
          "type": "string"
        }
      ],
      "name": "grantsFor",
      "outputs": [
        {
          "components": [
            {
              "internalType": "address",
              "name": "owner",
              "type": "address"
            },
            {
              "internalType": "address",
              "name": "grantee",
              "type": "address"
            },
            {
              "internalType": "string",
              "name": "dataId",
              "type": "string"
            },
            {
              "internalType": "uint256",
              "name": "lockedUntil",
              "type": "uint256"
            }
          ],
          "internalType": "struct AccessGrants.Grant[]",
          "name": "",
          "type": "tuple[]"
        }
      ],
      "stateMutability": "view",
      "type": "function"
    },
    {
      "inputs": [
        {
          "internalType": "address",
          "name": "addr",
          "type": "address"
        }
      ],
      "name": "insertAddressApproved",
      "outputs": [],
      "stateMutability": "nonpayable",
      "type": "function"
    },
    {
      "inputs": [
        {
          "internalType": "address",
          "name": "grantee",
          "type": "address"
        },
        {
          "internalType": "string",
          "name": "dataId",
          "type": "string"
        },
        {
          "internalType": "uint256",
          "name": "lockedUntil",
          "type": "uint256"
        }
      ],
      "name": "insertGrant",
      "outputs": [],
      "stateMutability": "nonpayable",
      "type": "function"
    },
    {
      "inputs": [
        {
          "internalType": "address",
          "name": "owner",
          "type": "address"
        },
        {
          "internalType": "address",
          "name": "grantee",
          "type": "address"
        },
        {
          "internalType": "string",
          "name": "dataId",
          "type": "string"
        },
        {
          "internalType": "uint256",
          "name": "lockedUntil",
          "type": "uint256"
        },
        {
          "internalType": "bytes",
          "name": "signature",
          "type": "bytes"
        }
      ],
      "name": "insertGrantBySignature",
      "outputs": [],
      "stateMutability": "nonpayable",
      "type": "function"
    },
    {
      "inputs": [
        {
          "internalType": "address",
          "name": "owner",
          "type": "address"
        },
        {
          "internalType": "address",
          "name": "grantee",
          "type": "address"
        },
        {
          "internalType": "string",
          "name": "dataId",
          "type": "string"
        },
        {
          "internalType": "uint256",
          "name": "lockedUntil",
          "type": "uint256"
        }
      ],
      "name": "insertGrantBySignatureMessage",
      "outputs": [
        {
          "internalType": "string",
          "name": "",
          "type": "string"
        }
      ],
      "stateMutability": "pure",
      "type": "function"
    },
    {
      "inputs": [
        {
          "internalType": "address",
          "name": "owner",
          "type": "address"
        },
        {
          "internalType": "address",
          "name": "operator",
          "type": "address"
        }
      ],
      "name": "isApprovedForAll",
      "outputs": [
        {
          "internalType": "bool",
          "name": "",
          "type": "bool"
        }
      ],
      "stateMutability": "view",
      "type": "function"
    },
    {
      "inputs": [],
      "name": "name",
      "outputs": [
        {
          "internalType": "string",
          "name": "",
          "type": "string"
        }
      ],
      "stateMutability": "view",
      "type": "function"
    },
    {
      "inputs": [],
      "name": "owner",
      "outputs": [
        {
          "internalType": "address",
          "name": "",
          "type": "address"
        }
      ],
      "stateMutability": "view",
      "type": "function"
    },
    {
      "inputs": [
        {
          "internalType": "uint256",
          "name": "tokenId",
          "type": "uint256"
        }
      ],
      "name": "ownerOf",
      "outputs": [
        {
          "internalType": "address",
          "name": "",
          "type": "address"
        }
      ],
      "stateMutability": "view",
      "type": "function"
    },
    {
      "inputs": [
        {
          "internalType": "address",
          "name": "validator",
          "type": "address"
        }
      ],
      "name": "removeValidator",
      "outputs": [],
      "stateMutability": "nonpayable",
      "type": "function"
    },
    {
      "inputs": [],
      "name": "renounceOwnership",
      "outputs": [],
      "stateMutability": "nonpayable",
      "type": "function"
    },
    {
      "inputs": [
        {
          "internalType": "address",
          "name": "to",
          "type": "address"
        },
        {
          "internalType": "uint256",
          "name": "tokenId",
          "type": "uint256"
        },
        {
          "internalType": "string",
          "name": "uri",
          "type": "string"
        }
      ],
      "name": "safeMint",
      "outputs": [],
      "stateMutability": "nonpayable",
      "type": "function"
    },
    {
      "inputs": [
        {
          "internalType": "address",
          "name": "from",
          "type": "address"
        },
        {
          "internalType": "address",
          "name": "to",
          "type": "address"
        },
        {
          "internalType": "uint256",
          "name": "tokenId",
          "type": "uint256"
        }
      ],
      "name": "safeTransferFrom",
      "outputs": [],
      "stateMutability": "nonpayable",
      "type": "function"
    },
    {
      "inputs": [
        {
          "internalType": "address",
          "name": "from",
          "type": "address"
        },
        {
          "internalType": "address",
          "name": "to",
          "type": "address"
        },
        {
          "internalType": "uint256",
          "name": "tokenId",
          "type": "uint256"
        },
        {
          "internalType": "bytes",
          "name": "data",
          "type": "bytes"
        }
      ],
      "name": "safeTransferFrom",
      "outputs": [],
      "stateMutability": "nonpayable",
      "type": "function"
    },
    {
      "inputs": [
        {
          "internalType": "address",
          "name": "operator",
          "type": "address"
        },
        {
          "internalType": "bool",
          "name": "approved",
          "type": "bool"
        }
      ],
      "name": "setApprovalForAll",
      "outputs": [],
      "stateMutability": "nonpayable",
      "type": "function"
    },
    {
      "inputs": [
        {
          "internalType": "bytes4",
          "name": "interfaceId",
          "type": "bytes4"
        }
      ],
      "name": "supportsInterface",
      "outputs": [
        {
          "internalType": "bool",
          "name": "",
          "type": "bool"
        }
      ],
      "stateMutability": "view",
      "type": "function"
    },
    {
      "inputs": [],
      "name": "symbol",
      "outputs": [
        {
          "internalType": "string",
          "name": "",
          "type": "string"
        }
      ],
      "stateMutability": "view",
      "type": "function"
    },
    {
      "inputs": [
        {
          "internalType": "uint256",
          "name": "tokenId",
          "type": "uint256"
        }
      ],
      "name": "tokenURI",
      "outputs": [
        {
          "internalType": "string",
          "name": "",
          "type": "string"
        }
      ],
      "stateMutability": "view",
      "type": "function"
    },
    {
      "inputs": [
        {
          "internalType": "address",
          "name": "from",
          "type": "address"
        },
        {
          "internalType": "address",
          "name": "to",
          "type": "address"
        },
        {
          "internalType": "uint256",
          "name": "tokenId",
          "type": "uint256"
        }
      ],
      "name": "transferFrom",
      "outputs": [],
      "stateMutability": "nonpayable",
      "type": "function"
    },
    {
      "inputs": [
        {
          "internalType": "address",
          "name": "newOwner",
          "type": "address"
        }
      ],
      "name": "transferOwnership",
      "outputs": [],
      "stateMutability": "nonpayable",
      "type": "function"
    }
  ],
  "bytecode": "0x60806040523480156200001157600080fd5b5060405162003cbd38038062003cbd8339810160408190526200003491620001f8565b604051806040016040528060098152602001684b594342726964676560b81b8152506040518060400160405280600381526020016225aca160e91b8152508160009081620000839190620002cf565b506001620000928282620002cf565b505050620000af620000a9620000c160201b60201c565b620000c5565b620000ba8162000117565b506200039b565b3390565b600780546001600160a01b038381166001600160a01b0319831681179093556040519116919082907f8be0079c531659141344cd1fd0a4f28419497f9722a3daafe3b4186f6b6457e090600090a35050565b620001216200019a565b6001600160a01b0381166200018c5760405162461bcd60e51b815260206004820152602660248201527f4f776e61626c653a206e6577206f776e657220697320746865207a65726f206160448201526564647265737360d01b60648201526084015b60405180910390fd5b6200019781620000c5565b50565b6007546001600160a01b03163314620001f65760405162461bcd60e51b815260206004820181905260248201527f4f776e61626c653a2063616c6c6572206973206e6f7420746865206f776e6572604482015260640162000183565b565b6000602082840312156200020b57600080fd5b81516001600160a01b03811681146200022357600080fd5b9392505050565b634e487b7160e01b600052604160045260246000fd5b600181811c908216806200025557607f821691505b6020821081036200027657634e487b7160e01b600052602260045260246000fd5b50919050565b601f821115620002ca57600081815260208120601f850160051c81016020861015620002a55750805b601f850160051c820191505b81811015620002c657828155600101620002b1565b5050505b505050565b81516001600160401b03811115620002eb57620002eb6200022a565b6200030381620002fc845462000240565b846200027c565b602080601f8311600181146200033b5760008415620003225750858301515b600019600386901b1c1916600185901b178555620002c6565b600085815260208120601f198616915b828110156200036c578886015182559484019460019091019084016200034b565b50858210156200038b5787850151600019600388901b60f8161c191681555b5050505050600190811b01905550565b61391280620003ab6000396000f3fe608060405234801561001057600080fd5b50600436106101c45760003560e01c8063715018a6116100f9578063b7dd886511610097578063c87b56dd11610071578063c87b56dd146103c5578063cd279c7c146103d8578063e985e9c5146103eb578063f2fde38b1461042757600080fd5b8063b7dd88651461038c578063b88d4fde1461039f578063c28c6524146103b257600080fd5b806395d89b41116100d357806395d89b411461034b578063a22cb46514610353578063b14d52d514610366578063b25875b91461037957600080fd5b8063715018a6146103125780637e0cc3a21461031a5780638da5cb5b1461033a57600080fd5b80632ae12052116101665780634ba0b062116101405780634ba0b062146102b85780634d238c8e146102cb5780636352211e146102de57806370a08231146102f157600080fd5b80632ae120521461027f57806340a141ff1461029257806342842e0e146102a557600080fd5b8063095ea7b3116101a2578063095ea7b3146102315780631389386f14610246578063236c70621461025957806323b872dd1461026c57600080fd5b806301ffc9a7146101c957806306fdde03146101f1578063081812fc14610206575b600080fd5b6101dc6101d7366004612d79565b61043a565b60405190151581526020015b60405180910390f35b6101f961044b565b6040516101e89190612de6565b610219610214366004612df9565b6104dd565b6040516001600160a01b0390911681526020016101e8565b61024461023f366004612e2e565b610504565b005b610244610254366004612e58565b61063a565b6101f9610267366004612eb5565b6106db565b61024461027a366004612f1e565b610728565b6101f961028d366004612eb5565b61079f565b6102446102a0366004612e58565b6107d2565b6102446102b3366004612f1e565b610841565b6102446102c6366004612f5a565b61085c565b6102446102d9366004612e58565b61097b565b6102196102ec366004612df9565b6109e6565b6103046102ff366004612e58565b610a4b565b6040519081526020016101e8565b610244610ae5565b61032d6103283660046130a1565b610af9565b6040516101e891906130ff565b6007546001600160a01b0316610219565b6101f9610fc4565b610244610361366004613198565b610fd3565b6102446103743660046131d4565b610fde565b610244610387366004612f5a565b611050565b61032d61039a36600461322e565b611152565b6102446103ad36600461327c565b6111d5565b6102446103c03660046132f8565b61124d565b6101f96103d3366004612df9565b6112b8565b6102446103e636600461334f565b6112c3565b6101dc6103f9366004613390565b6001600160a01b03918216600090815260056020908152604080832093909416825291909152205460ff1690565b610244610435366004612e58565b6112df565b60006104458261136f565b92915050565b60606000805461045a906133c3565b80601f0160208091040260200160405190810160405280929190818152602001828054610486906133c3565b80156104d35780601f106104a8576101008083540402835291602001916104d3565b820191906000526020600020905b8154815290600101906020018083116104b657829003601f168201915b5050505050905090565b60006104e8826113ad565b506000908152600460205260409020546001600160a01b031690565b600061050f826109e6565b9050806001600160a01b0316836001600160a01b03160361059d5760405162461bcd60e51b815260206004820152602160248201527f4552433732313a20617070726f76616c20746f2063757272656e74206f776e6560448201527f720000000000000000000000000000000000000000000000000000000000000060648201526084015b60405180910390fd5b336001600160a01b03821614806105b957506105b981336103f9565b61062b5760405162461bcd60e51b815260206004820152603d60248201527f4552433732313a20617070726f76652063616c6c6572206973206e6f7420746f60448201527f6b656e206f776e6572206f7220617070726f76656420666f7220616c6c0000006064820152608401610594565b6106358383611411565b505050565b6106433361147f565b61068f5760405162461bcd60e51b815260206004820152600960248201527f4e6f742076616c696400000000000000000000000000000000000000000000006044820152606401610594565b6001600160a01b0381166000818152600e6020526040808220805460ff19166001179055517f06ff7f1b9da6991a41b519527462c0c61ae7f6f5c269a92dc8dc18e8fb1f8cb19190a250565b60606106e68661148c565b6106ef8661148c565b85856106fa866114a2565b60405160200161070e959493929190613428565b604051602081830303815290604052905095945050505050565b6107323382611542565b6107945760405162461bcd60e51b815260206004820152602d60248201527f4552433732313a2063616c6c6572206973206e6f7420746f6b656e206f776e6560448201526c1c881bdc88185c1c1c9bdd9959609a1b6064820152608401610594565b6106358383836115c1565b60606107aa8661148c565b6107b38661148c565b85856107be866114a2565b60405160200161070e95949392919061354a565b6107da611611565b6107e5600f8261166b565b156108325760405162461bcd60e51b815260206004820152601860248201527f56616c696461746f7220616c72656164792065786973747300000000000000006044820152606401610594565b61083d600f8261168d565b5050565b610635838383604051806020016040528060008152506111d5565b6108b1876108756108708a8a8a8a8a61079f565b6116a2565b84848080601f0160208091040260200160405190810160405280939291908181526020018383808284376000920191909152506116dd92505050565b6108fd5760405162461bcd60e51b815260206004820152601760248201527f5369676e617475726520646f65736e2774206d617463680000000000000000006044820152606401610594565b6001600160a01b0386166000908152600e602052604090205460ff166109655760405162461bcd60e51b815260206004820152601760248201527f4772616e746565206973206e6f7420417070726f7665640000000000000000006044820152606401610594565b610972878787878761173e565b50505050505050565b610983611611565b61098e600f8261166b565b156109db5760405162461bcd60e51b815260206004820152601860248201527f56616c696461746f7220616c72656164792065786973747300000000000000006044820152606401610594565b61083d600f8261197a565b6000818152600260205260408120546001600160a01b0316806104455760405162461bcd60e51b815260206004820152601860248201527f4552433732313a20696e76616c696420746f6b656e20494400000000000000006044820152606401610594565b60006001600160a01b038216610ac95760405162461bcd60e51b815260206004820152602960248201527f4552433732313a2061646472657373207a65726f206973206e6f74206120766160448201527f6c6964206f776e657200000000000000000000000000000000000000000000006064820152608401610594565b506001600160a01b031660009081526003602052604090205490565b610aed611611565b610af7600061198f565b565b6060610b1d846001600160a01b03166000908152600e602052604090205460ff1690565b610b695760405162461bcd60e51b815260206004820152601760248201527f4772616e746565206973206e6f7420417070726f7665640000000000000000006044820152606401610594565b606060006001600160a01b03861615610bc8576001600160a01b0386166000908152600b60205260409020610b9d906119e1565b6001600160a01b0387166000908152600b60205260409020909250610bc1906119ee565b9050610c8a565b6001600160a01b03851615610c1c576001600160a01b0385166000908152600c60205260409020610bf8906119e1565b6001600160a01b0386166000908152600c60205260409020909250610bc1906119ee565b60405162461bcd60e51b815260206004820152602b60248201527f526571756972656420617267756d656e743a20606f776e65726020616e642f6f60448201527f7220606772616e746565600000000000000000000000000000000000000000006064820152608401610594565b6000808267ffffffffffffffff811115610ca657610ca6612ff5565b604051908082528060200260200182016040528015610ccf578160200160208202803683370190505b50905060005b83811015610dc8576000858281518110610cf157610cf161359d565b602002602001015190506000806001600160a01b03168a6001600160a01b03161480610d3a57506001600160a01b038a166000908152600c60205260409020610d3a90836119f8565b8015610d795750610d4a89611a10565b80610d795750610d7982600d8b604051610d6491906135b3565b908152604051908190036020019020906119f8565b90508015610db35784610d8b816135e5565b9550506001848481518110610da257610da261359d565b911515602092830291909101909101525b50508080610dc0906135e5565b915050610cd5565b5060008267ffffffffffffffff811115610de457610de4612ff5565b604051908082528060200260200182016040528015610e5257816020015b610e3f604051806080016040528060006001600160a01b0316815260200160006001600160a01b0316815260200160608152602001600081525090565b815260200190600190039081610e025790505b5090506000805b85811015610fb557838181518110610e7357610e7361359d565b602002602001015115610fa357600a6000888381518110610e9657610e9661359d565b6020908102919091018101518252818101929092526040908101600020815160808101835281546001600160a01b039081168252600183015416938101939093526002810180549192840191610eeb906133c3565b80601f0160208091040260200160405190810160405280929190818152602001828054610f17906133c3565b8015610f645780601f10610f3957610100808354040283529160200191610f64565b820191906000526020600020905b815481529060010190602001808311610f4757829003601f168201915b50505050508152602001600382015481525050838381518110610f8957610f8961359d565b60200260200101819052508180610f9f906135e5565b9250505b80610fad816135e5565b915050610e59565b50909998505050505050505050565b60606001805461045a906133c3565b61083d338383611a68565b336000908152600e602052604090205460ff1661103d5760405162461bcd60e51b815260206004820152601660248201527f53656e646572206973206e6f7420417070726f766564000000000000000000006044820152606401610594565b61104a338585858561173e565b50505050565b336000908152600e602052604090205460ff166110af5760405162461bcd60e51b815260206004820152601760248201527f4772616e746565206973206e6f7420417070726f7665640000000000000000006044820152606401610594565b6110c3876108756108708a8a8a8a8a6106db565b61110f5760405162461bcd60e51b815260206004820152601760248201527f5369676e617475726520646f65736e2774206d617463680000000000000000006044820152606401610594565b610972878787878080601f016020809104026020016040519081016040528093929190818152602001838380828437600092019190915250899250611b36915050565b6060611176836001600160a01b03166000908152600e602052604090205460ff1690565b6111c25760405162461bcd60e51b815260206004820152601760248201527f4772616e746565206973206e6f7420417070726f7665640000000000000000006044820152606401610594565b6111ce60008484610af9565b9392505050565b6111df3383611542565b6112415760405162461bcd60e51b815260206004820152602d60248201527f4552433732313a2063616c6c6572206973206e6f7420746f6b656e206f776e6560448201526c1c881bdc88185c1c1c9bdd9959609a1b6064820152608401610594565b61104a84848484611d9a565b336000908152600e602052604090205460ff166112ac5760405162461bcd60e51b815260206004820152601760248201527f4772616e746565206973206e6f7420417070726f7665640000000000000000006044820152606401610594565b61063533848484611b36565b606061044582611e18565b6112cb611611565b6112d58383611f20565b6106358282611f3a565b6112e7611611565b6001600160a01b0381166113635760405162461bcd60e51b815260206004820152602660248201527f4f776e61626c653a206e6577206f776e657220697320746865207a65726f206160448201527f64647265737300000000000000000000000000000000000000000000000000006064820152608401610594565b61136c8161198f565b50565b60006001600160e01b031982167f49064906000000000000000000000000000000000000000000000000000000001480610445575061044582612014565b6000818152600260205260409020546001600160a01b031661136c5760405162461bcd60e51b815260206004820152601860248201527f4552433732313a20696e76616c696420746f6b656e20494400000000000000006044820152606401610594565b600081815260046020526040902080546001600160a01b0319166001600160a01b0384169081179091558190611446826109e6565b6001600160a01b03167f8c5be1e5ebec7d5bd14f71427d1e84f3dd0314c0f7b2291e5b200ac8c7c3b92560405160405180910390a45050565b6000610445600f8361166b565b60606104456001600160a01b03831660146120af565b606060006114af83612274565b600101905060008167ffffffffffffffff8111156114cf576114cf612ff5565b6040519080825280601f01601f1916602001820160405280156114f9576020820181803683370190505b5090508181016020015b600019017f3031323334353637383961626364656600000000000000000000000000000000600a86061a8153600a850494508461150357509392505050565b60008061154e836109e6565b9050806001600160a01b0316846001600160a01b0316148061159557506001600160a01b0380821660009081526005602090815260408083209388168352929052205460ff165b806115b95750836001600160a01b03166115ae846104dd565b6001600160a01b0316145b949350505050565b6115cc838383612356565b816001600160a01b0316836001600160a01b03167f300d469138b2918bf4974fcaf1b131b6a0f2c355452712ce54cfd68cbf780cd260405160405180910390a3505050565b6007546001600160a01b03163314610af75760405162461bcd60e51b815260206004820181905260248201527f4f776e61626c653a2063616c6c6572206973206e6f7420746865206f776e65726044820152606401610594565b6001600160a01b038116600090815260018301602052604081205415156111ce565b60006111ce836001600160a01b03841661254f565b60006116ae82516114a2565b826040516020016116c09291906135fe565b604051602081830303815290604052805190602001209050919050565b60008060006116ec8585612642565b9092509050600081600481111561170557611705613659565b1480156117235750856001600160a01b0316826001600160a01b0316145b806117345750611734868686612687565b9695505050505050565b60006040518060800160405280876001600160a01b03168152602001866001600160a01b0316815260200185858080601f016020809104026020016040519081016040528093929190818152602001838380828437600092018290525093855250505060209091018490529091506117b5826127a1565b6000818152600a60205260409020549091506001600160a01b03161561181d5760405162461bcd60e51b815260206004820152601460248201527f4772616e7420616c7265616479206578697374730000000000000000000000006044820152606401610594565b6000818152600a6020908152604091829020845181546001600160a01b03199081166001600160a01b039283161783559286015160018301805490941691161790915590830151839190600282019061187690826136b5565b506060919091015160039091015581516001600160a01b03166000908152600b602052604090206118a790826127ca565b506020808301516001600160a01b03166000908152600c909152604090206118cf90826127ca565b506118fd81600d84604001516040516118e891906135b3565b908152604051908190036020019020906127ca565b50816040015160405161191091906135b3565b604051809103902082602001516001600160a01b031683600001516001600160a01b03167faa11b1607ce40799434b358e476f60277b9c8879ca956534f8f185a8b7e227a7856060015160405161196991815260200190565b60405180910390a450505050505050565b60006111ce836001600160a01b0384166127d2565b600780546001600160a01b038381166001600160a01b0319831681179093556040519116919082907f8be0079c531659141344cd1fd0a4f28419497f9722a3daafe3b4186f6b6457e090600090a35050565b606060006111ce83612821565b6000610445825490565b600081815260018301602052604081205415156111ce565b604051600360fc1b60208201526000906021016040516020818303038152906040528051906020012082604051602001611a4a91906135b3565b60405160208183030381529060405280519060200120149050919050565b816001600160a01b0316836001600160a01b031603611ac95760405162461bcd60e51b815260206004820152601960248201527f4552433732313a20617070726f766520746f2063616c6c6572000000000000006044820152606401610594565b6001600160a01b03838116600081815260056020908152604080832094871680845294825291829020805460ff191686151590811790915591519182527f17307eab39ab6107e8899845ad3d59bd9653f200f220920489ca2b5937696c31910160405180910390a3505050565b6000611b43858585610af9565b90506000815111611b965760405162461bcd60e51b815260206004820152601360248201527f4e6f206772616e747320666f72206f776e6572000000000000000000000000006044820152606401610594565b60005b8151811015611d92576000828281518110611bb657611bb661359d565b602002602001015190508360001480611beb575083838381518110611bdd57611bdd61359d565b602002602001015160600151145b15611d7f5742816060015110611c435760405162461bcd60e51b815260206004820152601360248201527f4772616e742069732074696d656c6f636b6564000000000000000000000000006044820152606401610594565b6000611c4e826127a1565b6000818152600a6020526040812080546001600160a01b031990811682556001820180549091169055919250611c876002830182612d15565b50600060039190910181905582516001600160a01b03168152600b60205260409020611cb3908261287d565b506020808301516001600160a01b03166000908152600c90915260409020611cdb908261287d565b50611d0981600d8460400151604051611cf491906135b3565b9081526040519081900360200190209061287d565b508160400151604051611d1c91906135b3565b604051809103902082602001516001600160a01b031683600001516001600160a01b03167ffeff9850709af031b875a6b4bea72ef38f7679e252a8aeecd4d176225b1ee3238560600151604051611d7591815260200190565b60405180910390a4505b5080611d8a816135e5565b915050611b99565b505050505050565b611da58484846115c1565b611db184848484612889565b61104a5760405162461bcd60e51b815260206004820152603260248201527f4552433732313a207472616e7366657220746f206e6f6e20455243373231526560448201527131b2b4bb32b91034b6b83632b6b2b73a32b960711b6064820152608401610594565b6060611e23826113ad565b60008281526006602052604081208054611e3c906133c3565b80601f0160208091040260200160405190810160405280929190818152602001828054611e68906133c3565b8015611eb55780601f10611e8a57610100808354040283529160200191611eb5565b820191906000526020600020905b815481529060010190602001808311611e9857829003601f168201915b505050505090506000611ed360408051602081019091526000815290565b90508051600003611ee5575092915050565b815115611f17578082604051602001611eff929190613775565b60405160208183030381529060405292505050919050565b6115b9846129d5565b61083d828260405180602001604052806000815250612a48565b6000828152600260205260409020546001600160a01b0316611fc45760405162461bcd60e51b815260206004820152602e60248201527f45524337323155524953746f726167653a2055524920736574206f66206e6f6e60448201527f6578697374656e7420746f6b656e0000000000000000000000000000000000006064820152608401610594565b6000828152600660205260409020611fdc82826136b5565b506040518281527ff8e1a15aba9398e019f0b49df1a4fde98ee17ae345cb5f6b5e2c27f5033e8ce79060200160405180910390a15050565b60006001600160e01b031982167f80ac58cd00000000000000000000000000000000000000000000000000000000148061207757506001600160e01b031982167f5b5e139f00000000000000000000000000000000000000000000000000000000145b8061044557507f01ffc9a7000000000000000000000000000000000000000000000000000000006001600160e01b0319831614610445565b606060006120be8360026137a4565b6120c99060026137bb565b67ffffffffffffffff8111156120e1576120e1612ff5565b6040519080825280601f01601f19166020018201604052801561210b576020820181803683370190505b509050600360fc1b816000815181106121265761212661359d565b60200101906001600160f81b031916908160001a9053507f7800000000000000000000000000000000000000000000000000000000000000816001815181106121715761217161359d565b60200101906001600160f81b031916908160001a90535060006121958460026137a4565b6121a09060016137bb565b90505b6001811115612225577f303132333435363738396162636465660000000000000000000000000000000085600f16601081106121e1576121e161359d565b1a60f81b8282815181106121f7576121f761359d565b60200101906001600160f81b031916908160001a90535060049490941c9361221e816137ce565b90506121a3565b5083156111ce5760405162461bcd60e51b815260206004820181905260248201527f537472696e67733a20686578206c656e67746820696e73756666696369656e746044820152606401610594565b6000807a184f03e93ff9f4daa797ed6e38ed64bf6a1f01000000000000000083106122bd577a184f03e93ff9f4daa797ed6e38ed64bf6a1f010000000000000000830492506040015b6d04ee2d6d415b85acef810000000083106122e9576d04ee2d6d415b85acef8100000000830492506020015b662386f26fc10000831061230757662386f26fc10000830492506010015b6305f5e100831061231f576305f5e100830492506008015b612710831061233357612710830492506004015b60648310612345576064830492506002015b600a83106104455760010192915050565b826001600160a01b0316612369826109e6565b6001600160a01b0316146123cd5760405162461bcd60e51b815260206004820152602560248201527f4552433732313a207472616e736665722066726f6d20696e636f72726563742060448201526437bbb732b960d91b6064820152608401610594565b6001600160a01b0382166124485760405162461bcd60e51b8152602060048201526024808201527f4552433732313a207472616e7366657220746f20746865207a65726f2061646460448201527f72657373000000000000000000000000000000000000000000000000000000006064820152608401610594565b826001600160a01b031661245b826109e6565b6001600160a01b0316146124bf5760405162461bcd60e51b815260206004820152602560248201527f4552433732313a207472616e736665722066726f6d20696e636f72726563742060448201526437bbb732b960d91b6064820152608401610594565b600081815260046020908152604080832080546001600160a01b03199081169091556001600160a01b0387811680865260038552838620805460001901905590871680865283862080546001019055868652600290945282852080549092168417909155905184937fddf252ad1be2c89b69c2b068fc378daa952ba7f163c4a11628f55a4df523b3ef91a4505050565b600081815260018301602052604081205480156126385760006125736001836137e5565b8554909150600090612587906001906137e5565b90508181146125ec5760008660000182815481106125a7576125a761359d565b90600052602060002001549050808760000184815481106125ca576125ca61359d565b6000918252602080832090910192909255918252600188019052604090208390555b85548690806125fd576125fd6137f8565b600190038181906000526020600020016000905590558560010160008681526020019081526020016000206000905560019350505050610445565b6000915050610445565b60008082516041036126785760208301516040840151606085015160001a61266c87828585612ac6565b94509450505050612680565b506000905060025b9250929050565b6000806000856001600160a01b0316631626ba7e60e01b86866040516024016126b192919061380e565b60408051601f198184030181529181526020820180517bffffffffffffffffffffffffffffffffffffffffffffffffffffffff166001600160e01b031990941693909317909252905161270491906135b3565b600060405180830381855afa9150503d806000811461273f576040519150601f19603f3d011682016040523d82523d6000602084013e612744565b606091505b509150915081801561275857506020815110155b8015611734575080517f1626ba7e00000000000000000000000000000000000000000000000000000000906127969083016020908101908401613827565b149695505050505050565b600081600001518260200151836040015184606001516040516020016116c09493929190613840565b60006111ce83835b600081815260018301602052604081205461281957508154600181810184556000848152602080822090930184905584548482528286019093526040902091909155610445565b506000610445565b60608160000180548060200260200160405190810160405280929190818152602001828054801561287157602002820191906000526020600020905b81548152602001906001019080831161285d575b50505050509050919050565b60006111ce838361254f565b60006001600160a01b0384163b156129ca57604051630a85bd0160e11b81526001600160a01b0385169063150b7a02906128cd90339089908890889060040161388d565b6020604051808303816000875af1925050508015612908575060408051601f3d908101601f19168201909252612905918101906138bf565b60015b6129b0573d808015612936576040519150601f19603f3d011682016040523d82523d6000602084013e61293b565b606091505b5080516000036129a85760405162461bcd60e51b815260206004820152603260248201527f4552433732313a207472616e7366657220746f206e6f6e20455243373231526560448201527131b2b4bb32b91034b6b83632b6b2b73a32b960711b6064820152608401610594565b805181602001fd5b6001600160e01b031916630a85bd0160e11b1490506115b9565b506001949350505050565b60606129e0826113ad565b60006129f760408051602081019091526000815290565b90506000815111612a1757604051806020016040528060008152506111ce565b80612a21846114a2565b604051602001612a32929190613775565b6040516020818303038152906040529392505050565b612a528383612b8a565b612a5f6000848484612889565b6106355760405162461bcd60e51b815260206004820152603260248201527f4552433732313a207472616e7366657220746f206e6f6e20455243373231526560448201527131b2b4bb32b91034b6b83632b6b2b73a32b960711b6064820152608401610594565b6000807f7fffffffffffffffffffffffffffffff5d576e7357a4501ddfe92f46681b20a0831115612afd5750600090506003612b81565b6040805160008082526020820180845289905260ff881692820192909252606081018690526080810185905260019060a0016020604051602081039080840390855afa158015612b51573d6000803e3d6000fd5b5050604051601f1901519150506001600160a01b038116612b7a57600060019250925050612b81565b9150600090505b94509492505050565b6001600160a01b038216612be05760405162461bcd60e51b815260206004820181905260248201527f4552433732313a206d696e7420746f20746865207a65726f20616464726573736044820152606401610594565b6000818152600260205260409020546001600160a01b031615612c455760405162461bcd60e51b815260206004820152601c60248201527f4552433732313a20746f6b656e20616c7265616479206d696e746564000000006044820152606401610594565b6000818152600260205260409020546001600160a01b031615612caa5760405162461bcd60e51b815260206004820152601c60248201527f4552433732313a20746f6b656e20616c7265616479206d696e746564000000006044820152606401610594565b6001600160a01b038216600081815260036020908152604080832080546001019055848352600290915280822080546001600160a01b0319168417905551839291907fddf252ad1be2c89b69c2b068fc378daa952ba7f163c4a11628f55a4df523b3ef908290a45050565b508054612d21906133c3565b6000825580601f10612d31575050565b601f01602090049060005260206000209081019061136c91905b80821115612d5f5760008155600101612d4b565b5090565b6001600160e01b03198116811461136c57600080fd5b600060208284031215612d8b57600080fd5b81356111ce81612d63565b60005b83811015612db1578181015183820152602001612d99565b50506000910152565b60008151808452612dd2816020860160208601612d96565b601f01601f19169290920160200192915050565b6020815260006111ce6020830184612dba565b600060208284031215612e0b57600080fd5b5035919050565b80356001600160a01b0381168114612e2957600080fd5b919050565b60008060408385031215612e4157600080fd5b612e4a83612e12565b946020939093013593505050565b600060208284031215612e6a57600080fd5b6111ce82612e12565b60008083601f840112612e8557600080fd5b50813567ffffffffffffffff811115612e9d57600080fd5b60208301915083602082850101111561268057600080fd5b600080600080600060808688031215612ecd57600080fd5b612ed686612e12565b9450612ee460208701612e12565b9350604086013567ffffffffffffffff811115612f0057600080fd5b612f0c88828901612e73565b96999598509660600135949350505050565b600080600060608486031215612f3357600080fd5b612f3c84612e12565b9250612f4a60208501612e12565b9150604084013590509250925092565b600080600080600080600060a0888a031215612f7557600080fd5b612f7e88612e12565b9650612f8c60208901612e12565b9550604088013567ffffffffffffffff80821115612fa957600080fd5b612fb58b838c01612e73565b909750955060608a0135945060808a0135915080821115612fd557600080fd5b50612fe28a828b01612e73565b989b979a50959850939692959293505050565b634e487b7160e01b600052604160045260246000fd5b600067ffffffffffffffff8084111561302657613026612ff5565b604051601f8501601f19908116603f0116810190828211818310171561304e5761304e612ff5565b8160405280935085815286868601111561306757600080fd5b858560208301376000602087830101525050509392505050565b600082601f83011261309257600080fd5b6111ce8383356020850161300b565b6000806000606084860312156130b657600080fd5b6130bf84612e12565b92506130cd60208501612e12565b9150604084013567ffffffffffffffff8111156130e957600080fd5b6130f586828701613081565b9150509250925092565b60006020808301818452808551808352604092508286019150828160051b87010184880160005b8381101561318a57603f19898403018552815160806001600160a01b03808351168652808a840151168a8701525087820151818987015261316982870182612dba565b60609384015196909301959095525094870194925090860190600101613126565b509098975050505050505050565b600080604083850312156131ab57600080fd5b6131b483612e12565b9150602083013580151581146131c957600080fd5b809150509250929050565b600080600080606085870312156131ea57600080fd5b6131f385612e12565b9350602085013567ffffffffffffffff81111561320f57600080fd5b61321b87828801612e73565b9598909750949560400135949350505050565b6000806040838503121561324157600080fd5b61324a83612e12565b9150602083013567ffffffffffffffff81111561326657600080fd5b61327285828601613081565b9150509250929050565b6000806000806080858703121561329257600080fd5b61329b85612e12565b93506132a960208601612e12565b925060408501359150606085013567ffffffffffffffff8111156132cc57600080fd5b8501601f810187136132dd57600080fd5b6132ec8782356020840161300b565b91505092959194509250565b60008060006060848603121561330d57600080fd5b61331684612e12565b9250602084013567ffffffffffffffff81111561333257600080fd5b61333e86828701613081565b925050604084013590509250925092565b60008060006060848603121561336457600080fd5b61336d84612e12565b925060208401359150604084013567ffffffffffffffff8111156130e957600080fd5b600080604083850312156133a357600080fd5b6133ac83612e12565b91506133ba60208401612e12565b90509250929050565b600181811c908216806133d757607f821691505b6020821081036133f757634e487b7160e01b600052602260045260246000fd5b50919050565b6000815161340f818560208601612d96565b9290920192915050565b81818437506000910190815290565b7f6f7065726174696f6e3a2064656c6574654772616e740000000000000000000081526000600560f91b80601684015266037bbb732b91d160cd1b6017840152875161347b81601e860160208c01612d96565b808401905081601e8201527f6772616e7465653a200000000000000000000000000000000000000000000000601f82015287516134bf816028840160208c01612d96565b01602881018290527f6461746149643a2000000000000000000000000000000000000000000000000060298201526134fb603182018789613419565b91505061350b81600560f91b9052565b7f6c6f636b6564556e74696c3a2000000000000000000000000000000000000000600182015261353e600e8201856133fd565b98975050505050505050565b7f6f7065726174696f6e3a20696e736572744772616e740000000000000000000081526000600560f91b80601684015266037bbb732b91d160cd1b6017840152875161347b81601e860160208c01612d96565b634e487b7160e01b600052603260045260246000fd5b600082516135c5818460208701612d96565b9190910192915050565b634e487b7160e01b600052601160045260246000fd5b6000600182016135f7576135f76135cf565b5060010190565b7f19457468657265756d205369676e6564204d6573736167653a0a00000000000081526000835161363681601a850160208801612d96565b83519083019061364d81601a840160208801612d96565b01601a01949350505050565b634e487b7160e01b600052602160045260246000fd5b601f82111561063557600081815260208120601f850160051c810160208610156136965750805b601f850160051c820191505b81811015611d92578281556001016136a2565b815167ffffffffffffffff8111156136cf576136cf612ff5565b6136e3816136dd84546133c3565b8461366f565b602080601f83116001811461371857600084156137005750858301515b600019600386901b1c1916600185901b178555611d92565b600085815260208120601f198616915b8281101561374757888601518255948401946001909101908401613728565b50858210156137655787850151600019600388901b60f8161c191681555b5050505050600190811b01905550565b60008351613787818460208801612d96565b83519083019061379b818360208801612d96565b01949350505050565b8082028115828204841417610445576104456135cf565b80820180821115610445576104456135cf565b6000816137dd576137dd6135cf565b506000190190565b81810381811115610445576104456135cf565b634e487b7160e01b600052603160045260246000fd5b8281526040602082015260006115b96040830184612dba565b60006020828403121561383957600080fd5b5051919050565b60006bffffffffffffffffffffffff19808760601b168352808660601b166014840152508351613877816028850160208801612d96565b6028920191820192909252604801949350505050565b60006001600160a01b038087168352808616602084015250836040830152608060608301526117346080830184612dba565b6000602082840312156138d157600080fd5b81516111ce81612d6356fea2646970667358221220a1bc3b3df8e04c658cc2d5627bcb16a6e1ae9bafd7d4f40d455765242cdb9bc064736f6c63430008130033",
  "linkReferences": {},
  "deployedLinkReferences": {}
}